{
  "_format": "hh-sol-artifact-1",
  "contractName": "CrossSender",
  "sourceName": "contracts/CrossSender.sol",
  "abi": [
    {
      "inputs": [
        {
          "internalType": "address",
          "name": "_gateway",
          "type": "address"
        },
        {
          "internalType": "address",
          "name": "_gasReceiver",
          "type": "address"
        }
      ],
      "stateMutability": "nonpayable",
      "type": "constructor"
    },
    {
      "inputs": [
        {
          "components": [
            {
              "internalType": "address[]",
              "name": "receivers",
              "type": "address[]"
            },
            {
              "internalType": "uint256[]",
              "name": "amounts",
              "type": "uint256[]"
            },
            {
              "internalType": "string",
              "name": "destChain",
              "type": "string"
            },
            {
              "internalType": "string",
              "name": "detContractAddress",
              "type": "string"
            },
            {
              "internalType": "string",
              "name": "tokenSymbol",
              "type": "string"
            },
            {
              "internalType": "uint256",
              "name": "gasFees",
              "type": "uint256"
            },
            {
              "internalType": "uint256",
              "name": "totalAmount",
              "type": "uint256"
            }
          ],
          "internalType": "struct CrossSender.PaymentData[]",
          "name": "_paymentData",
          "type": "tuple[]"
        }
      ],
      "name": "sendPayment",
      "outputs": [],
      "stateMutability": "payable",
      "type": "function"
    }
  ],
  "bytecode": "0x60806040523480156200001157600080fd5b506040516200123c3803806200123c83398181016040528101906200003791906200012a565b816000806101000a81548173ffffffffffffffffffffffffffffffffffffffff021916908373ffffffffffffffffffffffffffffffffffffffff16021790555080600160006101000a81548173ffffffffffffffffffffffffffffffffffffffff021916908373ffffffffffffffffffffffffffffffffffffffff160217905550505062000171565b600080fd5b600073ffffffffffffffffffffffffffffffffffffffff82169050919050565b6000620000f282620000c5565b9050919050565b6200010481620000e5565b81146200011057600080fd5b50565b6000815190506200012481620000f9565b92915050565b60008060408385031215620001445762000143620000c0565b5b6000620001548582860162000113565b9250506020620001678582860162000113565b9150509250929050565b6110bb80620001816000396000f3fe60806040526004361061001e5760003560e01c80636ebf09ee14610023575b600080fd5b61003d60048036038101906100389190610ace565b61003f565b005b60008151905060005b818110156105255760008060009054906101000a900473ffffffffffffffffffffffffffffffffffffffff1673ffffffffffffffffffffffffffffffffffffffff1663935b13f68584815181106100a2576100a1610b17565b5b6020026020010151608001516040518263ffffffff1660e01b81526004016100ca9190610bc5565b602060405180830381865afa1580156100e7573d6000803e3d6000fd5b505050506040513d601f19601f8201168201806040525081019061010b9190610bfc565b90508073ffffffffffffffffffffffffffffffffffffffff166323b872dd333087868151811061013e5761013d610b17565b5b602002602001015160c001516040518463ffffffff1660e01b815260040161016893929190610c47565b6020604051808303816000875af1158015610187573d6000803e3d6000fd5b505050506040513d601f19601f820116820180604052508101906101ab9190610cb6565b508073ffffffffffffffffffffffffffffffffffffffff1663095ea7b360008054906101000a900473ffffffffffffffffffffffffffffffffffffffff168685815181106101fc576101fb610b17565b5b602002602001015160c001516040518363ffffffff1660e01b8152600401610225929190610ce3565b6020604051808303816000875af1158015610244573d6000803e3d6000fd5b505050506040513d601f19601f820116820180604052508101906102689190610cb6565b50600084838151811061027e5761027d610b17565b5b60200260200101516000015185848151811061029d5761029c610b17565b5b6020026020010151602001516040516020016102ba929190610e88565b6040516020818303038152906040529050600034111561040557600160009054906101000a900473ffffffffffffffffffffffffffffffffffffffff1673ffffffffffffffffffffffffffffffffffffffff1663c62c200286858151811061032557610324610b17565b5b602002602001015160a001513088878151811061034557610344610b17565b5b60200260200101516040015189888151811061036457610363610b17565b5b602002602001015160600151868b8a8151811061038457610383610b17565b5b6020026020010151608001518c8b815181106103a3576103a2610b17565b5b602002602001015160c00151336040518963ffffffff1660e01b81526004016103d29796959493929190610f14565b6000604051808303818588803b1580156103eb57600080fd5b505af11580156103ff573d6000803e3d6000fd5b50505050505b60008054906101000a900473ffffffffffffffffffffffffffffffffffffffff1673ffffffffffffffffffffffffffffffffffffffff1663b541708486858151811061045457610453610b17565b5b60200260200101516040015187868151811061047357610472610b17565b5b6020026020010151606001518489888151811061049357610492610b17565b5b6020026020010151608001518a89815181106104b2576104b1610b17565b5b602002602001015160c001516040518663ffffffff1660e01b81526004016104de959493929190610f9f565b600060405180830381600087803b1580156104f857600080fd5b505af115801561050c573d6000803e3d6000fd5b505050505050808061051d9061103d565b915050610048565b505050565b6000604051905090565b600080fd5b600080fd5b600080fd5b6000601f19601f8301169050919050565b7f4e487b7100000000000000000000000000000000000000000000000000000000600052604160045260246000fd5b61058c82610543565b810181811067ffffffffffffffff821117156105ab576105aa610554565b5b80604052505050565b60006105be61052a565b90506105ca8282610583565b919050565b600067ffffffffffffffff8211156105ea576105e9610554565b5b602082029050602081019050919050565b600080fd5b600080fd5b600080fd5b600067ffffffffffffffff82111561062557610624610554565b5b602082029050602081019050919050565b600073ffffffffffffffffffffffffffffffffffffffff82169050919050565b600061066182610636565b9050919050565b61067181610656565b811461067c57600080fd5b50565b60008135905061068e81610668565b92915050565b60006106a76106a28461060a565b6105b4565b905080838252602082019050602084028301858111156106ca576106c96105fb565b5b835b818110156106f357806106df888261067f565b8452602084019350506020810190506106cc565b5050509392505050565b600082601f8301126107125761071161053e565b5b8135610722848260208601610694565b91505092915050565b600067ffffffffffffffff82111561074657610745610554565b5b602082029050602081019050919050565b6000819050919050565b61076a81610757565b811461077557600080fd5b50565b60008135905061078781610761565b92915050565b60006107a061079b8461072b565b6105b4565b905080838252602082019050602084028301858111156107c3576107c26105fb565b5b835b818110156107ec57806107d88882610778565b8452602084019350506020810190506107c5565b5050509392505050565b600082601f83011261080b5761080a61053e565b5b813561081b84826020860161078d565b91505092915050565b600080fd5b600067ffffffffffffffff82111561084457610843610554565b5b61084d82610543565b9050602081019050919050565b82818337600083830152505050565b600061087c61087784610829565b6105b4565b90508281526020810184848401111561089857610897610824565b5b6108a384828561085a565b509392505050565b600082601f8301126108c0576108bf61053e565b5b81356108d0848260208601610869565b91505092915050565b600060e082840312156108ef576108ee610600565b5b6108f960e06105b4565b9050600082013567ffffffffffffffff81111561091957610918610605565b5b610925848285016106fd565b600083015250602082013567ffffffffffffffff81111561094957610948610605565b5b610955848285016107f6565b602083015250604082013567ffffffffffffffff81111561097957610978610605565b5b610985848285016108ab565b604083015250606082013567ffffffffffffffff8111156109a9576109a8610605565b5b6109b5848285016108ab565b606083015250608082013567ffffffffffffffff8111156109d9576109d8610605565b5b6109e5848285016108ab565b60808301525060a06109f984828501610778565b60a08301525060c0610a0d84828501610778565b60c08301525092915050565b6000610a2c610a27846105cf565b6105b4565b90508083825260208201905060208402830185811115610a4f57610a4e6105fb565b5b835b81811015610a9657803567ffffffffffffffff811115610a7457610a7361053e565b5b808601610a8189826108d9565b85526020850194505050602081019050610a51565b5050509392505050565b600082601f830112610ab557610ab461053e565b5b8135610ac5848260208601610a19565b91505092915050565b600060208284031215610ae457610ae3610534565b5b600082013567ffffffffffffffff811115610b0257610b01610539565b5b610b0e84828501610aa0565b91505092915050565b7f4e487b7100000000000000000000000000000000000000000000000000000000600052603260045260246000fd5b600081519050919050565b600082825260208201905092915050565b60005b83811015610b80578082015181840152602081019050610b65565b60008484015250505050565b6000610b9782610b46565b610ba18185610b51565b9350610bb1818560208601610b62565b610bba81610543565b840191505092915050565b60006020820190508181036000830152610bdf8184610b8c565b905092915050565b600081519050610bf681610668565b92915050565b600060208284031215610c1257610c11610534565b5b6000610c2084828501610be7565b91505092915050565b610c3281610656565b82525050565b610c4181610757565b82525050565b6000606082019050610c5c6000830186610c29565b610c696020830185610c29565b610c766040830184610c38565b949350505050565b60008115159050919050565b610c9381610c7e565b8114610c9e57600080fd5b50565b600081519050610cb081610c8a565b92915050565b600060208284031215610ccc57610ccb610534565b5b6000610cda84828501610ca1565b91505092915050565b6000604082019050610cf86000830185610c29565b610d056020830184610c38565b9392505050565b600081519050919050565b600082825260208201905092915050565b6000819050602082019050919050565b610d4181610656565b82525050565b6000610d538383610d38565b60208301905092915050565b6000602082019050919050565b6000610d7782610d0c565b610d818185610d17565b9350610d8c83610d28565b8060005b83811015610dbd578151610da48882610d47565b9750610daf83610d5f565b925050600181019050610d90565b5085935050505092915050565b600081519050919050565b600082825260208201905092915050565b6000819050602082019050919050565b610dff81610757565b82525050565b6000610e118383610df6565b60208301905092915050565b6000602082019050919050565b6000610e3582610dca565b610e3f8185610dd5565b9350610e4a83610de6565b8060005b83811015610e7b578151610e628882610e05565b9750610e6d83610e1d565b925050600181019050610e4e565b5085935050505092915050565b60006040820190508181036000830152610ea28185610d6c565b90508181036020830152610eb68184610e2a565b90509392505050565b600081519050919050565b600082825260208201905092915050565b6000610ee682610ebf565b610ef08185610eca565b9350610f00818560208601610b62565b610f0981610543565b840191505092915050565b600060e082019050610f29600083018a610c29565b8181036020830152610f3b8189610b8c565b90508181036040830152610f4f8188610b8c565b90508181036060830152610f638187610edb565b90508181036080830152610f778186610b8c565b9050610f8660a0830185610c38565b610f9360c0830184610c29565b98975050505050505050565b600060a0820190508181036000830152610fb98188610b8c565b90508181036020830152610fcd8187610b8c565b90508181036040830152610fe18186610edb565b90508181036060830152610ff58185610b8c565b90506110046080830184610c38565b9695505050505050565b7f4e487b7100000000000000000000000000000000000000000000000000000000600052601160045260246000fd5b600061104882610757565b91507fffffffffffffffffffffffffffffffffffffffffffffffffffffffffffffffff820361107a5761107961100e565b5b60018201905091905056fea26469706673582212205dd0d194cc8a92f7f5fd1eb78b5155456314505953517dbec9e28fd60587411a64736f6c63430008130033",
  "linkReferences": {},
  "deployedLinkReferences": {}
}