{
  "_format": "hh-sol-artifact-1",
  "contractName": "CrossSender",
  "sourceName": "contracts/CrossSender.sol",
  "abi": [
    {
      "inputs": [
        {
          "internalType": "address",
          "name": "_gateway",
          "type": "address"
        },
        {
          "internalType": "address",
          "name": "_gasReceiver",
          "type": "address"
        }
      ],
      "stateMutability": "nonpayable",
      "type": "constructor"
    },
    {
      "inputs": [],
      "name": "currPaymentId",
      "outputs": [
        {
          "internalType": "uint256",
          "name": "",
          "type": "uint256"
        }
      ],
      "stateMutability": "view",
      "type": "function"
    },
    {
      "inputs": [
        {
          "internalType": "address",
          "name": "_sender",
          "type": "address"
        }
      ],
      "name": "getSentPayments",
      "outputs": [
        {
          "components": [
            {
              "internalType": "address",
              "name": "sender",
              "type": "address"
            },
            {
              "internalType": "address",
              "name": "receiver",
              "type": "address"
            },
            {
              "internalType": "string",
              "name": "destinationChain",
              "type": "string"
            },
            {
              "internalType": "uint256",
              "name": "amount",
              "type": "uint256"
            },
            {
              "internalType": "string",
              "name": "tokenSymbol",
              "type": "string"
            },
            {
              "internalType": "uint256",
              "name": "paymentId",
              "type": "uint256"
            }
          ],
          "internalType": "struct CrossSender.PaymentDetails[]",
          "name": "",
          "type": "tuple[]"
        }
      ],
      "stateMutability": "view",
      "type": "function"
    },
    {
      "inputs": [
        {
          "components": [
            {
              "internalType": "address[]",
              "name": "receivers",
              "type": "address[]"
            },
            {
              "internalType": "uint256[]",
              "name": "amounts",
              "type": "uint256[]"
            },
            {
              "internalType": "string",
              "name": "destChain",
              "type": "string"
            },
            {
              "internalType": "string",
              "name": "detContractAddress",
              "type": "string"
            },
            {
              "internalType": "string",
              "name": "tokenSymbol",
              "type": "string"
            },
            {
              "internalType": "uint256",
              "name": "gasFees",
              "type": "uint256"
            }
          ],
          "internalType": "struct CrossSender.PaymentData[]",
          "name": "_paymentData",
          "type": "tuple[]"
        }
      ],
      "name": "sendPayment",
      "outputs": [],
      "stateMutability": "payable",
      "type": "function"
    },
    {
      "inputs": [
        {
          "internalType": "address",
          "name": "",
          "type": "address"
        },
        {
          "internalType": "uint256",
          "name": "",
          "type": "uint256"
        }
      ],
      "name": "senderToPaymentId",
      "outputs": [
        {
          "internalType": "uint256",
          "name": "",
          "type": "uint256"
        }
      ],
      "stateMutability": "view",
      "type": "function"
    },
    {
      "inputs": [
        {
          "internalType": "address",
          "name": "",
          "type": "address"
        },
        {
          "internalType": "uint256",
          "name": "",
          "type": "uint256"
        }
      ],
      "name": "sentPayments",
      "outputs": [
        {
          "internalType": "address",
          "name": "sender",
          "type": "address"
        },
        {
          "internalType": "address",
          "name": "receiver",
          "type": "address"
        },
        {
          "internalType": "string",
          "name": "destinationChain",
          "type": "string"
        },
        {
          "internalType": "uint256",
          "name": "amount",
          "type": "uint256"
        },
        {
          "internalType": "string",
          "name": "tokenSymbol",
          "type": "string"
        },
        {
          "internalType": "uint256",
          "name": "paymentId",
          "type": "uint256"
        }
      ],
      "stateMutability": "view",
      "type": "function"
    }
  ],
  "bytecode": "0x608060405260006004553480156200001657600080fd5b50604051620021a6380380620021a683398181016040528101906200003c91906200012f565b816000806101000a81548173ffffffffffffffffffffffffffffffffffffffff021916908373ffffffffffffffffffffffffffffffffffffffff16021790555080600160006101000a81548173ffffffffffffffffffffffffffffffffffffffff021916908373ffffffffffffffffffffffffffffffffffffffff160217905550505062000176565b600080fd5b600073ffffffffffffffffffffffffffffffffffffffff82169050919050565b6000620000f782620000ca565b9050919050565b6200010981620000ea565b81146200011557600080fd5b50565b6000815190506200012981620000fe565b92915050565b60008060408385031215620001495762000148620000c5565b5b6000620001598582860162000118565b92505060206200016c8582860162000118565b9150509250929050565b61202080620001866000396000f3fe60806040526004361061004a5760003560e01c8063107d62791461004f5780633888924e1461008c57806350b18db5146100ce5780635d74f235146100ea578063f3e9bd0c14610115575b600080fd5b34801561005b57600080fd5b5061007660048036038101906100719190610f84565b610152565b6040516100839190610fd3565b60405180910390f35b34801561009857600080fd5b506100b360048036038101906100ae9190610f84565b610183565b6040516100c59695949392919061108d565b60405180910390f35b6100e860048036038101906100e391906115d3565b61031c565b005b3480156100f657600080fd5b506100ff610acf565b60405161010c9190610fd3565b60405180910390f35b34801561012157600080fd5b5061013c6004803603810190610137919061161c565b610ad5565b6040516101499190611803565b60405180910390f35b6003602052816000526040600020818154811061016e57600080fd5b90600052602060002001600091509150505481565b6002602052816000526040600020602052806000526040600020600091509150508060000160009054906101000a900473ffffffffffffffffffffffffffffffffffffffff16908060010160009054906101000a900473ffffffffffffffffffffffffffffffffffffffff16908060020180546101ff90611854565b80601f016020809104026020016040519081016040528092919081815260200182805461022b90611854565b80156102785780601f1061024d57610100808354040283529160200191610278565b820191906000526020600020905b81548152906001019060200180831161025b57829003601f168201915b50505050509080600301549080600401805461029390611854565b80601f01602080910402602001604051908101604052809291908181526020018280546102bf90611854565b801561030c5780601f106102e15761010080835404028352916020019161030c565b820191906000526020600020905b8154815290600101906020018083116102ef57829003601f168201915b5050505050908060050154905086565b6000808251905060005b81811015610ac957600084828151811061034357610342611885565b5b60200260200101516000015151905060005b818110156106665760046000815480929190610370906118e3565b9190505550600360003373ffffffffffffffffffffffffffffffffffffffff1673ffffffffffffffffffffffffffffffffffffffff16815260200190815260200160002060045490806001815401808255809150506001900390600052602060002001600090919091909150558583815181106103f0576103ef611885565b5b602002602001015160200151818151811061040e5761040d611885565b5b602002602001015185610421919061192b565b945060006040518060c001604052803373ffffffffffffffffffffffffffffffffffffffff16815260200188868151811061045f5761045e611885565b5b602002602001015160000151848151811061047d5761047c611885565b5b602002602001015173ffffffffffffffffffffffffffffffffffffffff1681526020018886815181106104b3576104b2611885565b5b60200260200101516040015181526020018886815181106104d7576104d6611885565b5b60200260200101516020015184815181106104f5576104f4611885565b5b6020026020010151815260200188868151811061051557610514611885565b5b6020026020010151608001518152602001600454815250905080600260003373ffffffffffffffffffffffffffffffffffffffff1673ffffffffffffffffffffffffffffffffffffffff1681526020019081526020016000206000600454815260200190815260200160002060008201518160000160006101000a81548173ffffffffffffffffffffffffffffffffffffffff021916908373ffffffffffffffffffffffffffffffffffffffff16021790555060208201518160010160006101000a81548173ffffffffffffffffffffffffffffffffffffffff021916908373ffffffffffffffffffffffffffffffffffffffff16021790555060408201518160020190816106249190611b0b565b506060820151816003015560808201518160040190816106449190611b0b565b5060a0820151816005015590505050808061065e906118e3565b915050610355565b5060008060009054906101000a900473ffffffffffffffffffffffffffffffffffffffff1673ffffffffffffffffffffffffffffffffffffffff1663935b13f68785815181106106b9576106b8611885565b5b6020026020010151608001516040518263ffffffff1660e01b81526004016106e19190611bdd565b602060405180830381865afa1580156106fe573d6000803e3d6000fd5b505050506040513d601f19601f820116820180604052508101906107229190611c14565b90508073ffffffffffffffffffffffffffffffffffffffff166323b872dd3330886040518463ffffffff1660e01b815260040161076193929190611c41565b6020604051808303816000875af1158015610780573d6000803e3d6000fd5b505050506040513d601f19601f820116820180604052508101906107a49190611cb0565b508073ffffffffffffffffffffffffffffffffffffffff1663095ea7b360008054906101000a900473ffffffffffffffffffffffffffffffffffffffff16876040518363ffffffff1660e01b8152600401610800929190611cdd565b6020604051808303816000875af115801561081f573d6000803e3d6000fd5b505050506040513d601f19601f820116820180604052508101906108439190611cb0565b50600086848151811061085957610858611885565b5b60200260200101516000015187858151811061087857610877611885565b5b602002602001015160200151604051602001610895929190611e64565b604051602081830303815290604052905060003411156109c257600160009054906101000a900473ffffffffffffffffffffffffffffffffffffffff1673ffffffffffffffffffffffffffffffffffffffff1663c62c2002888681518110610900576108ff611885565b5b602002602001015160a00151308a88815181106109205761091f611885565b5b6020026020010151604001518b898151811061093f5761093e611885565b5b602002602001015160600151868d8b8151811061095f5761095e611885565b5b6020026020010151608001518d336040518963ffffffff1660e01b815260040161098f9796959493929190611ef0565b6000604051808303818588803b1580156109a857600080fd5b505af11580156109bc573d6000803e3d6000fd5b50505050505b60008054906101000a900473ffffffffffffffffffffffffffffffffffffffff1673ffffffffffffffffffffffffffffffffffffffff1663b5417084888681518110610a1157610a10611885565b5b602002602001015160400151898781518110610a3057610a2f611885565b5b602002602001015160600151848b8981518110610a5057610a4f611885565b5b6020026020010151608001518b6040518663ffffffff1660e01b8152600401610a7d959493929190611f7b565b600060405180830381600087803b158015610a9757600080fd5b505af1158015610aab573d6000803e3d6000fd5b50505050600095505050508080610ac1906118e3565b915050610326565b50505050565b60045481565b6060600060045467ffffffffffffffff811115610af557610af4611101565b5b604051908082528060200260200182016040528015610b2e57816020015b610b1b610e7a565b815260200190600190039081610b135790505b5090506000600360008573ffffffffffffffffffffffffffffffffffffffff1673ffffffffffffffffffffffffffffffffffffffff168152602001908152602001600020805480602002602001604051908101604052809291908181526020018280548015610bbc57602002820191906000526020600020905b815481526020019060010190808311610ba8575b505050505090506000815190506000805b82811015610e6d57600260008873ffffffffffffffffffffffffffffffffffffffff1673ffffffffffffffffffffffffffffffffffffffff1681526020019081526020016000206000858381518110610c2957610c28611885565b5b602002602001015181526020019081526020016000206040518060c00160405290816000820160009054906101000a900473ffffffffffffffffffffffffffffffffffffffff1673ffffffffffffffffffffffffffffffffffffffff1673ffffffffffffffffffffffffffffffffffffffff1681526020016001820160009054906101000a900473ffffffffffffffffffffffffffffffffffffffff1673ffffffffffffffffffffffffffffffffffffffff1673ffffffffffffffffffffffffffffffffffffffff168152602001600282018054610d0690611854565b80601f0160208091040260200160405190810160405280929190818152602001828054610d3290611854565b8015610d7f5780601f10610d5457610100808354040283529160200191610d7f565b820191906000526020600020905b815481529060010190602001808311610d6257829003601f168201915b5050505050815260200160038201548152602001600482018054610da290611854565b80601f0160208091040260200160405190810160405280929190818152602001828054610dce90611854565b8015610e1b5780601f10610df057610100808354040283529160200191610e1b565b820191906000526020600020905b815481529060010190602001808311610dfe57829003601f168201915b50505050508152602001600582015481525050858381518110610e4157610e40611885565b5b60200260200101819052508180610e57906118e3565b9250508080610e65906118e3565b915050610bcd565b5083945050505050919050565b6040518060c00160405280600073ffffffffffffffffffffffffffffffffffffffff168152602001600073ffffffffffffffffffffffffffffffffffffffff168152602001606081526020016000815260200160608152602001600081525090565b6000604051905090565b600080fd5b600080fd5b600073ffffffffffffffffffffffffffffffffffffffff82169050919050565b6000610f1b82610ef0565b9050919050565b610f2b81610f10565b8114610f3657600080fd5b50565b600081359050610f4881610f22565b92915050565b6000819050919050565b610f6181610f4e565b8114610f6c57600080fd5b50565b600081359050610f7e81610f58565b92915050565b60008060408385031215610f9b57610f9a610ee6565b5b6000610fa985828601610f39565b9250506020610fba85828601610f6f565b9150509250929050565b610fcd81610f4e565b82525050565b6000602082019050610fe86000830184610fc4565b92915050565b610ff781610f10565b82525050565b600081519050919050565b600082825260208201905092915050565b60005b8381101561103757808201518184015260208101905061101c565b60008484015250505050565b6000601f19601f8301169050919050565b600061105f82610ffd565b6110698185611008565b9350611079818560208601611019565b61108281611043565b840191505092915050565b600060c0820190506110a26000830189610fee565b6110af6020830188610fee565b81810360408301526110c18187611054565b90506110d06060830186610fc4565b81810360808301526110e28185611054565b90506110f160a0830184610fc4565b979650505050505050565b600080fd5b7f4e487b7100000000000000000000000000000000000000000000000000000000600052604160045260246000fd5b61113982611043565b810181811067ffffffffffffffff8211171561115857611157611101565b5b80604052505050565b600061116b610edc565b90506111778282611130565b919050565b600067ffffffffffffffff82111561119757611196611101565b5b602082029050602081019050919050565b600080fd5b600080fd5b600080fd5b600067ffffffffffffffff8211156111d2576111d1611101565b5b602082029050602081019050919050565b60006111f66111f1846111b7565b611161565b90508083825260208201905060208402830185811115611219576112186111a8565b5b835b81811015611242578061122e8882610f39565b84526020840193505060208101905061121b565b5050509392505050565b600082601f830112611261576112606110fc565b5b81356112718482602086016111e3565b91505092915050565b600067ffffffffffffffff82111561129557611294611101565b5b602082029050602081019050919050565b60006112b96112b48461127a565b611161565b905080838252602082019050602084028301858111156112dc576112db6111a8565b5b835b8181101561130557806112f18882610f6f565b8452602084019350506020810190506112de565b5050509392505050565b600082601f830112611324576113236110fc565b5b81356113348482602086016112a6565b91505092915050565b600080fd5b600067ffffffffffffffff82111561135d5761135c611101565b5b61136682611043565b9050602081019050919050565b82818337600083830152505050565b600061139561139084611342565b611161565b9050828152602081018484840111156113b1576113b061133d565b5b6113bc848285611373565b509392505050565b600082601f8301126113d9576113d86110fc565b5b81356113e9848260208601611382565b91505092915050565b600060c08284031215611408576114076111ad565b5b61141260c0611161565b9050600082013567ffffffffffffffff811115611432576114316111b2565b5b61143e8482850161124c565b600083015250602082013567ffffffffffffffff811115611462576114616111b2565b5b61146e8482850161130f565b602083015250604082013567ffffffffffffffff811115611492576114916111b2565b5b61149e848285016113c4565b604083015250606082013567ffffffffffffffff8111156114c2576114c16111b2565b5b6114ce848285016113c4565b606083015250608082013567ffffffffffffffff8111156114f2576114f16111b2565b5b6114fe848285016113c4565b60808301525060a061151284828501610f6f565b60a08301525092915050565b600061153161152c8461117c565b611161565b90508083825260208201905060208402830185811115611554576115536111a8565b5b835b8181101561159b57803567ffffffffffffffff811115611579576115786110fc565b5b80860161158689826113f2565b85526020850194505050602081019050611556565b5050509392505050565b600082601f8301126115ba576115b96110fc565b5b81356115ca84826020860161151e565b91505092915050565b6000602082840312156115e9576115e8610ee6565b5b600082013567ffffffffffffffff81111561160757611606610eeb565b5b611613848285016115a5565b91505092915050565b60006020828403121561163257611631610ee6565b5b600061164084828501610f39565b91505092915050565b600081519050919050565b600082825260208201905092915050565b6000819050602082019050919050565b61167e81610f10565b82525050565b600082825260208201905092915050565b60006116a082610ffd565b6116aa8185611684565b93506116ba818560208601611019565b6116c381611043565b840191505092915050565b6116d781610f4e565b82525050565b600060c0830160008301516116f56000860182611675565b5060208301516117086020860182611675565b50604083015184820360408601526117208282611695565b915050606083015161173560608601826116ce565b506080830151848203608086015261174d8282611695565b91505060a083015161176260a08601826116ce565b508091505092915050565b600061177983836116dd565b905092915050565b6000602082019050919050565b600061179982611649565b6117a38185611654565b9350836020820285016117b585611665565b8060005b858110156117f157848403895281516117d2858261176d565b94506117dd83611781565b925060208a019950506001810190506117b9565b50829750879550505050505092915050565b6000602082019050818103600083015261181d818461178e565b905092915050565b7f4e487b7100000000000000000000000000000000000000000000000000000000600052602260045260246000fd5b6000600282049050600182168061186c57607f821691505b60208210810361187f5761187e611825565b5b50919050565b7f4e487b7100000000000000000000000000000000000000000000000000000000600052603260045260246000fd5b7f4e487b7100000000000000000000000000000000000000000000000000000000600052601160045260246000fd5b60006118ee82610f4e565b91507fffffffffffffffffffffffffffffffffffffffffffffffffffffffffffffffff82036119205761191f6118b4565b5b600182019050919050565b600061193682610f4e565b915061194183610f4e565b9250828201905080821115611959576119586118b4565b5b92915050565b60008190508160005260206000209050919050565b60006020601f8301049050919050565b600082821b905092915050565b6000600883026119c17fffffffffffffffffffffffffffffffffffffffffffffffffffffffffffffffff82611984565b6119cb8683611984565b95508019841693508086168417925050509392505050565b6000819050919050565b6000611a08611a036119fe84610f4e565b6119e3565b610f4e565b9050919050565b6000819050919050565b611a22836119ed565b611a36611a2e82611a0f565b848454611991565b825550505050565b600090565b611a4b611a3e565b611a56818484611a19565b505050565b5b81811015611a7a57611a6f600082611a43565b600181019050611a5c565b5050565b601f821115611abf57611a908161195f565b611a9984611974565b81016020851015611aa8578190505b611abc611ab485611974565b830182611a5b565b50505b505050565b600082821c905092915050565b6000611ae260001984600802611ac4565b1980831691505092915050565b6000611afb8383611ad1565b9150826002028217905092915050565b611b1482610ffd565b67ffffffffffffffff811115611b2d57611b2c611101565b5b611b378254611854565b611b42828285611a7e565b600060209050601f831160018114611b755760008415611b63578287015190505b611b6d8582611aef565b865550611bd5565b601f198416611b838661195f565b60005b82811015611bab57848901518255600182019150602085019450602081019050611b86565b86831015611bc85784890151611bc4601f891682611ad1565b8355505b6001600288020188555050505b505050505050565b60006020820190508181036000830152611bf78184611054565b905092915050565b600081519050611c0e81610f22565b92915050565b600060208284031215611c2a57611c29610ee6565b5b6000611c3884828501611bff565b91505092915050565b6000606082019050611c566000830186610fee565b611c636020830185610fee565b611c706040830184610fc4565b949350505050565b60008115159050919050565b611c8d81611c78565b8114611c9857600080fd5b50565b600081519050611caa81611c84565b92915050565b600060208284031215611cc657611cc5610ee6565b5b6000611cd484828501611c9b565b91505092915050565b6000604082019050611cf26000830185610fee565b611cff6020830184610fc4565b9392505050565b600081519050919050565b600082825260208201905092915050565b6000819050602082019050919050565b6000611d3e8383611675565b60208301905092915050565b6000602082019050919050565b6000611d6282611d06565b611d6c8185611d11565b9350611d7783611d22565b8060005b83811015611da8578151611d8f8882611d32565b9750611d9a83611d4a565b925050600181019050611d7b565b5085935050505092915050565b600081519050919050565b600082825260208201905092915050565b6000819050602082019050919050565b6000611ded83836116ce565b60208301905092915050565b6000602082019050919050565b6000611e1182611db5565b611e1b8185611dc0565b9350611e2683611dd1565b8060005b83811015611e57578151611e3e8882611de1565b9750611e4983611df9565b925050600181019050611e2a565b5085935050505092915050565b60006040820190508181036000830152611e7e8185611d57565b90508181036020830152611e928184611e06565b90509392505050565b600081519050919050565b600082825260208201905092915050565b6000611ec282611e9b565b611ecc8185611ea6565b9350611edc818560208601611019565b611ee581611043565b840191505092915050565b600060e082019050611f05600083018a610fee565b8181036020830152611f178189611054565b90508181036040830152611f2b8188611054565b90508181036060830152611f3f8187611eb7565b90508181036080830152611f538186611054565b9050611f6260a0830185610fc4565b611f6f60c0830184610fee565b98975050505050505050565b600060a0820190508181036000830152611f958188611054565b90508181036020830152611fa98187611054565b90508181036040830152611fbd8186611eb7565b90508181036060830152611fd18185611054565b9050611fe06080830184610fc4565b969550505050505056fea2646970667358221220f05fcf4c886098ea67f220be1b6a6b3ae8834f0223e7e5cea1fa10c1b4d4960d64736f6c63430008130033",
  "linkReferences": {},
  "deployedLinkReferences": {}
}