{
  "_format": "hh-sol-artifact-1",
  "contractName": "CrossSender",
  "sourceName": "contracts/CrossSender.sol",
  "abi": [
    {
      "inputs": [
        {
          "internalType": "address",
          "name": "_gateway",
          "type": "address"
        },
        {
          "internalType": "address",
          "name": "_gasReceiver",
          "type": "address"
        }
      ],
      "stateMutability": "nonpayable",
      "type": "constructor"
    },
    {
      "inputs": [
        {
          "internalType": "address payable[]",
          "name": "recipients",
          "type": "address[]"
        },
        {
          "internalType": "uint256[]",
          "name": "values",
          "type": "uint256[]"
        }
      ],
      "name": "disperseEther",
      "outputs": [],
      "stateMutability": "payable",
      "type": "function"
    },
    {
      "inputs": [
        {
          "internalType": "contract IERC20",
          "name": "token",
          "type": "address"
        },
        {
          "internalType": "address[]",
          "name": "recipients",
          "type": "address[]"
        },
        {
          "internalType": "uint256[]",
          "name": "values",
          "type": "uint256[]"
        }
      ],
      "name": "disperseToken",
      "outputs": [],
      "stateMutability": "nonpayable",
      "type": "function"
    },
    {
      "inputs": [
        {
          "internalType": "contract IERC20",
          "name": "token",
          "type": "address"
        },
        {
          "internalType": "address[]",
          "name": "recipients",
          "type": "address[]"
        },
        {
          "internalType": "uint256[]",
          "name": "values",
          "type": "uint256[]"
        }
      ],
      "name": "disperseTokenSimple",
      "outputs": [],
      "stateMutability": "nonpayable",
      "type": "function"
    },
    {
      "inputs": [
        {
          "components": [
            {
              "internalType": "address[]",
              "name": "receivers",
              "type": "address[]"
            },
            {
              "internalType": "uint256[]",
              "name": "amounts",
              "type": "uint256[]"
            },
            {
              "internalType": "string",
              "name": "destChain",
              "type": "string"
            },
            {
              "internalType": "string",
              "name": "detContractAddress",
              "type": "string"
            },
            {
              "internalType": "string",
              "name": "tokenSymbol",
              "type": "string"
            },
            {
              "internalType": "uint256",
              "name": "gasFees",
              "type": "uint256"
            },
            {
              "internalType": "uint256",
              "name": "totalAmount",
              "type": "uint256"
            }
          ],
          "internalType": "struct CrossSender.PaymentData[]",
          "name": "_paymentData",
          "type": "tuple[]"
        }
      ],
      "name": "sendPayment",
      "outputs": [],
      "stateMutability": "payable",
      "type": "function"
    }
  ],
  "bytecode": "0x60806040523480156200001157600080fd5b50604051620018cc380380620018cc83398181016040528101906200003791906200012a565b816000806101000a81548173ffffffffffffffffffffffffffffffffffffffff021916908373ffffffffffffffffffffffffffffffffffffffff16021790555080600160006101000a81548173ffffffffffffffffffffffffffffffffffffffff021916908373ffffffffffffffffffffffffffffffffffffffff160217905550505062000171565b600080fd5b600073ffffffffffffffffffffffffffffffffffffffff82169050919050565b6000620000f282620000c5565b9050919050565b6200010481620000e5565b81146200011057600080fd5b50565b6000815190506200012481620000f9565b92915050565b60008060408385031215620001445762000143620000c0565b5b6000620001548582860162000113565b9250506020620001678582860162000113565b9150509250929050565b61174b80620001816000396000f3fe60806040526004361061003f5760003560e01c806351ba162c146100445780636ebf09ee1461006d578063c73a2d6014610089578063e63d38ed146100b2575b600080fd5b34801561005057600080fd5b5061006b60048036038101906100669190610c46565b6100ce565b005b61008760048036038101906100829190610fb1565b6101b0565b005b34801561009557600080fd5b506100b060048036038101906100ab9190610c46565b61069b565b005b6100cc60048036038101906100c791906110fb565b61084e565b005b60005b82518110156101aa578373ffffffffffffffffffffffffffffffffffffffff166323b872dd3385848151811061010a57610109611173565b5b602002602001015185858151811061012557610124611173565b5b60200260200101516040518463ffffffff1660e01b815260040161014b939291906111c0565b6020604051808303816000875af115801561016a573d6000803e3d6000fd5b505050506040513d601f19601f8201168201806040525081019061018e919061122f565b61019757600080fd5b80806101a29061128b565b9150506100d1565b50505050565b60008151905060005b818110156106965760008060009054906101000a900473ffffffffffffffffffffffffffffffffffffffff1673ffffffffffffffffffffffffffffffffffffffff1663935b13f685848151811061021357610212611173565b5b6020026020010151608001516040518263ffffffff1660e01b815260040161023b9190611352565b602060405180830381865afa158015610258573d6000803e3d6000fd5b505050506040513d601f19601f8201168201806040525081019061027c9190611389565b90508073ffffffffffffffffffffffffffffffffffffffff166323b872dd33308786815181106102af576102ae611173565b5b602002602001015160c001516040518463ffffffff1660e01b81526004016102d9939291906111c0565b6020604051808303816000875af11580156102f8573d6000803e3d6000fd5b505050506040513d601f19601f8201168201806040525081019061031c919061122f565b508073ffffffffffffffffffffffffffffffffffffffff1663095ea7b360008054906101000a900473ffffffffffffffffffffffffffffffffffffffff1686858151811061036d5761036c611173565b5b602002602001015160c001516040518363ffffffff1660e01b81526004016103969291906113b6565b6020604051808303816000875af11580156103b5573d6000803e3d6000fd5b505050506040513d601f19601f820116820180604052508101906103d9919061122f565b5060008483815181106103ef576103ee611173565b5b60200260200101516000015185848151811061040e5761040d611173565b5b60200260200101516020015160405160200161042b92919061155b565b6040516020818303038152906040529050600034111561057657600160009054906101000a900473ffffffffffffffffffffffffffffffffffffffff1673ffffffffffffffffffffffffffffffffffffffff1663c62c200286858151811061049657610495611173565b5b602002602001015160a00151308887815181106104b6576104b5611173565b5b6020026020010151604001518988815181106104d5576104d4611173565b5b602002602001015160600151868b8a815181106104f5576104f4611173565b5b6020026020010151608001518c8b8151811061051457610513611173565b5b602002602001015160c00151336040518963ffffffff1660e01b815260040161054397969594939291906115e7565b6000604051808303818588803b15801561055c57600080fd5b505af1158015610570573d6000803e3d6000fd5b50505050505b60008054906101000a900473ffffffffffffffffffffffffffffffffffffffff1673ffffffffffffffffffffffffffffffffffffffff1663b54170848685815181106105c5576105c4611173565b5b6020026020010151604001518786815181106105e4576105e3611173565b5b6020026020010151606001518489888151811061060457610603611173565b5b6020026020010151608001518a898151811061062357610622611173565b5b602002602001015160c001516040518663ffffffff1660e01b815260040161064f959493929190611672565b600060405180830381600087803b15801561066957600080fd5b505af115801561067d573d6000803e3d6000fd5b505050505050808061068e9061128b565b9150506101b9565b505050565b6000805b83518110156106e3578281815181106106bb576106ba611173565b5b6020026020010151826106ce91906116e1565b915080806106db9061128b565b91505061069f565b508373ffffffffffffffffffffffffffffffffffffffff166323b872dd3330846040518463ffffffff1660e01b8152600401610721939291906111c0565b6020604051808303816000875af1158015610740573d6000803e3d6000fd5b505050506040513d601f19601f82011682018060405250810190610764919061122f565b61076d57600080fd5b60005b8351811015610847578473ffffffffffffffffffffffffffffffffffffffff1663a9059cbb8583815181106107a8576107a7611173565b5b60200260200101518584815181106107c3576107c2611173565b5b60200260200101516040518363ffffffff1660e01b81526004016107e89291906113b6565b6020604051808303816000875af1158015610807573d6000803e3d6000fd5b505050506040513d601f19601f8201168201806040525081019061082b919061122f565b61083457600080fd5b808061083f9061128b565b915050610770565b5050505050565b60005b82518110156108e85782818151811061086d5761086c611173565b5b602002602001015173ffffffffffffffffffffffffffffffffffffffff166108fc8383815181106108a1576108a0611173565b5b60200260200101519081150290604051600060405180830381858888f193505050501580156108d4573d6000803e3d6000fd5b5080806108e09061128b565b915050610851565b506000479050600081111561093f573373ffffffffffffffffffffffffffffffffffffffff166108fc829081150290604051600060405180830381858888f1935050505015801561093d573d6000803e3d6000fd5b505b505050565b6000604051905090565b600080fd5b600080fd5b600073ffffffffffffffffffffffffffffffffffffffff82169050919050565b600061098382610958565b9050919050565b600061099582610978565b9050919050565b6109a58161098a565b81146109b057600080fd5b50565b6000813590506109c28161099c565b92915050565b600080fd5b6000601f19601f8301169050919050565b7f4e487b7100000000000000000000000000000000000000000000000000000000600052604160045260246000fd5b610a16826109cd565b810181811067ffffffffffffffff82111715610a3557610a346109de565b5b80604052505050565b6000610a48610944565b9050610a548282610a0d565b919050565b600067ffffffffffffffff821115610a7457610a736109de565b5b602082029050602081019050919050565b600080fd5b610a9381610978565b8114610a9e57600080fd5b50565b600081359050610ab081610a8a565b92915050565b6000610ac9610ac484610a59565b610a3e565b90508083825260208201905060208402830185811115610aec57610aeb610a85565b5b835b81811015610b155780610b018882610aa1565b845260208401935050602081019050610aee565b5050509392505050565b600082601f830112610b3457610b336109c8565b5b8135610b44848260208601610ab6565b91505092915050565b600067ffffffffffffffff821115610b6857610b676109de565b5b602082029050602081019050919050565b6000819050919050565b610b8c81610b79565b8114610b9757600080fd5b50565b600081359050610ba981610b83565b92915050565b6000610bc2610bbd84610b4d565b610a3e565b90508083825260208201905060208402830185811115610be557610be4610a85565b5b835b81811015610c0e5780610bfa8882610b9a565b845260208401935050602081019050610be7565b5050509392505050565b600082601f830112610c2d57610c2c6109c8565b5b8135610c3d848260208601610baf565b91505092915050565b600080600060608486031215610c5f57610c5e61094e565b5b6000610c6d868287016109b3565b935050602084013567ffffffffffffffff811115610c8e57610c8d610953565b5b610c9a86828701610b1f565b925050604084013567ffffffffffffffff811115610cbb57610cba610953565b5b610cc786828701610c18565b9150509250925092565b600067ffffffffffffffff821115610cec57610ceb6109de565b5b602082029050602081019050919050565b600080fd5b600080fd5b600080fd5b600067ffffffffffffffff821115610d2757610d266109de565b5b610d30826109cd565b9050602081019050919050565b82818337600083830152505050565b6000610d5f610d5a84610d0c565b610a3e565b905082815260208101848484011115610d7b57610d7a610d07565b5b610d86848285610d3d565b509392505050565b600082601f830112610da357610da26109c8565b5b8135610db3848260208601610d4c565b91505092915050565b600060e08284031215610dd257610dd1610cfd565b5b610ddc60e0610a3e565b9050600082013567ffffffffffffffff811115610dfc57610dfb610d02565b5b610e0884828501610b1f565b600083015250602082013567ffffffffffffffff811115610e2c57610e2b610d02565b5b610e3884828501610c18565b602083015250604082013567ffffffffffffffff811115610e5c57610e5b610d02565b5b610e6884828501610d8e565b604083015250606082013567ffffffffffffffff811115610e8c57610e8b610d02565b5b610e9884828501610d8e565b606083015250608082013567ffffffffffffffff811115610ebc57610ebb610d02565b5b610ec884828501610d8e565b60808301525060a0610edc84828501610b9a565b60a08301525060c0610ef084828501610b9a565b60c08301525092915050565b6000610f0f610f0a84610cd1565b610a3e565b90508083825260208201905060208402830185811115610f3257610f31610a85565b5b835b81811015610f7957803567ffffffffffffffff811115610f5757610f566109c8565b5b808601610f648982610dbc565b85526020850194505050602081019050610f34565b5050509392505050565b600082601f830112610f9857610f976109c8565b5b8135610fa8848260208601610efc565b91505092915050565b600060208284031215610fc757610fc661094e565b5b600082013567ffffffffffffffff811115610fe557610fe4610953565b5b610ff184828501610f83565b91505092915050565b600067ffffffffffffffff821115611015576110146109de565b5b602082029050602081019050919050565b600061103182610958565b9050919050565b61104181611026565b811461104c57600080fd5b50565b60008135905061105e81611038565b92915050565b600061107761107284610ffa565b610a3e565b9050808382526020820190506020840283018581111561109a57611099610a85565b5b835b818110156110c357806110af888261104f565b84526020840193505060208101905061109c565b5050509392505050565b600082601f8301126110e2576110e16109c8565b5b81356110f2848260208601611064565b91505092915050565b600080604083850312156111125761111161094e565b5b600083013567ffffffffffffffff8111156111305761112f610953565b5b61113c858286016110cd565b925050602083013567ffffffffffffffff81111561115d5761115c610953565b5b61116985828601610c18565b9150509250929050565b7f4e487b7100000000000000000000000000000000000000000000000000000000600052603260045260246000fd5b6111ab81610978565b82525050565b6111ba81610b79565b82525050565b60006060820190506111d560008301866111a2565b6111e260208301856111a2565b6111ef60408301846111b1565b949350505050565b60008115159050919050565b61120c816111f7565b811461121757600080fd5b50565b60008151905061122981611203565b92915050565b6000602082840312156112455761124461094e565b5b60006112538482850161121a565b91505092915050565b7f4e487b7100000000000000000000000000000000000000000000000000000000600052601160045260246000fd5b600061129682610b79565b91507fffffffffffffffffffffffffffffffffffffffffffffffffffffffffffffffff82036112c8576112c761125c565b5b600182019050919050565b600081519050919050565b600082825260208201905092915050565b60005b8381101561130d5780820151818401526020810190506112f2565b60008484015250505050565b6000611324826112d3565b61132e81856112de565b935061133e8185602086016112ef565b611347816109cd565b840191505092915050565b6000602082019050818103600083015261136c8184611319565b905092915050565b60008151905061138381610a8a565b92915050565b60006020828403121561139f5761139e61094e565b5b60006113ad84828501611374565b91505092915050565b60006040820190506113cb60008301856111a2565b6113d860208301846111b1565b9392505050565b600081519050919050565b600082825260208201905092915050565b6000819050602082019050919050565b61141481610978565b82525050565b6000611426838361140b565b60208301905092915050565b6000602082019050919050565b600061144a826113df565b61145481856113ea565b935061145f836113fb565b8060005b83811015611490578151611477888261141a565b975061148283611432565b925050600181019050611463565b5085935050505092915050565b600081519050919050565b600082825260208201905092915050565b6000819050602082019050919050565b6114d281610b79565b82525050565b60006114e483836114c9565b60208301905092915050565b6000602082019050919050565b60006115088261149d565b61151281856114a8565b935061151d836114b9565b8060005b8381101561154e57815161153588826114d8565b9750611540836114f0565b925050600181019050611521565b5085935050505092915050565b60006040820190508181036000830152611575818561143f565b9050818103602083015261158981846114fd565b90509392505050565b600081519050919050565b600082825260208201905092915050565b60006115b982611592565b6115c3818561159d565b93506115d38185602086016112ef565b6115dc816109cd565b840191505092915050565b600060e0820190506115fc600083018a6111a2565b818103602083015261160e8189611319565b905081810360408301526116228188611319565b9050818103606083015261163681876115ae565b9050818103608083015261164a8186611319565b905061165960a08301856111b1565b61166660c08301846111a2565b98975050505050505050565b600060a082019050818103600083015261168c8188611319565b905081810360208301526116a08187611319565b905081810360408301526116b481866115ae565b905081810360608301526116c88185611319565b90506116d760808301846111b1565b9695505050505050565b60006116ec82610b79565b91506116f783610b79565b925082820190508082111561170f5761170e61125c565b5b9291505056fea264697066735822122028f65c17a5f5d68d695b2b52f998b381570d80ba283b8b92894a98add7c482bd64736f6c63430008140033",
  "linkReferences": {},
  "deployedLinkReferences": {}
}