{
  "_format": "hh-sol-artifact-1",
  "contractName": "Register",
  "sourceName": "contracts/SmartDisperse.sol",
  "abi": [
    {
      "inputs": [
        {
          "internalType": "address",
          "name": "_recipient",
          "type": "address"
        }
      ],
      "name": "register",
      "outputs": [
        {
          "internalType": "uint256",
          "name": "tokenId",
          "type": "uint256"
        }
      ],
      "stateMutability": "nonpayable",
      "type": "function"
    }
  ],
  "bytecode": "0x608060405234801561001057600080fd5b50610161806100206000396000f3fe608060405234801561001057600080fd5b506004361061002b5760003560e01c80634420e48614610030575b600080fd5b61004a600480360381019061004591906100ca565b610060565b6040516100579190610110565b60405180910390f35b6000919050565b600080fd5b600073ffffffffffffffffffffffffffffffffffffffff82169050919050565b60006100978261006c565b9050919050565b6100a78161008c565b81146100b257600080fd5b50565b6000813590506100c48161009e565b92915050565b6000602082840312156100e0576100df610067565b5b60006100ee848285016100b5565b91505092915050565b6000819050919050565b61010a816100f7565b82525050565b60006020820190506101256000830184610101565b9291505056fea26469706673582212204bd0f71d66ea4533f800c772275dd3f12e0eb68afa8c3afcdbcc334f13a8ebfa64736f6c63430008140033",
  "linkReferences": {},
  "deployedLinkReferences": {}
}