{
  "_format": "hh-sol-artifact-1",
  "contractName": "SmartDisperse",
  "sourceName": "contracts/SmartDisperse.sol",
  "abi": [
    {
      "inputs": [],
      "stateMutability": "nonpayable",
      "type": "constructor"
    },
    {
      "inputs": [
        {
          "internalType": "address payable[]",
          "name": "recipients",
          "type": "address[]"
        },
        {
          "internalType": "uint256[]",
          "name": "values",
          "type": "uint256[]"
        }
      ],
      "name": "disperseEther",
      "outputs": [],
      "stateMutability": "payable",
      "type": "function"
    },
    {
      "inputs": [
        {
          "internalType": "contract IERC20",
          "name": "token",
          "type": "address"
        },
        {
          "internalType": "address[]",
          "name": "recipients",
          "type": "address[]"
        },
        {
          "internalType": "uint256[]",
          "name": "values",
          "type": "uint256[]"
        }
      ],
      "name": "disperseToken",
      "outputs": [],
      "stateMutability": "nonpayable",
      "type": "function"
    },
    {
      "inputs": [
        {
          "internalType": "contract IERC20",
          "name": "token",
          "type": "address"
        },
        {
          "internalType": "address[]",
          "name": "recipients",
          "type": "address[]"
        },
        {
          "internalType": "uint256[]",
          "name": "values",
          "type": "uint256[]"
        }
      ],
      "name": "disperseTokenSimple",
      "outputs": [],
      "stateMutability": "nonpayable",
      "type": "function"
    }
  ],
  "bytecode": "0x60806040523480156200001157600080fd5b50600073bbd707815a7f7eb6897c7686274afabd7b579ff690508073ffffffffffffffffffffffffffffffffffffffff16634420e486336040518263ffffffff1660e01b8152600401620000669190620000f9565b6020604051808303816000875af115801562000086573d6000803e3d6000fd5b505050506040513d601f19601f82011682018060405250810190620000ac919062000156565b505062000188565b600073ffffffffffffffffffffffffffffffffffffffff82169050919050565b6000620000e182620000b4565b9050919050565b620000f381620000d4565b82525050565b6000602082019050620001106000830184620000e8565b92915050565b600080fd5b6000819050919050565b62000130816200011b565b81146200013c57600080fd5b50565b600081519050620001508162000125565b92915050565b6000602082840312156200016f576200016e62000116565b5b60006200017f848285016200013f565b91505092915050565b610b2b80620001986000396000f3fe6080604052600436106100345760003560e01c806351ba162c14610039578063c73a2d6014610062578063e63d38ed1461008b575b600080fd5b34801561004557600080fd5b50610060600480360381019061005b9190610734565b6100a7565b005b34801561006e57600080fd5b5061008960048036038101906100849190610734565b610189565b005b6100a560048036038101906100a091906108c0565b61033c565b005b60005b8251811015610183578373ffffffffffffffffffffffffffffffffffffffff166323b872dd338584815181106100e3576100e2610938565b5b60200260200101518585815181106100fe576100fd610938565b5b60200260200101516040518463ffffffff1660e01b815260040161012493929190610985565b6020604051808303816000875af1158015610143573d6000803e3d6000fd5b505050506040513d601f19601f8201168201806040525081019061016791906109f4565b61017057600080fd5b808061017b90610a50565b9150506100aa565b50505050565b6000805b83518110156101d1578281815181106101a9576101a8610938565b5b6020026020010151826101bc9190610a98565b915080806101c990610a50565b91505061018d565b508373ffffffffffffffffffffffffffffffffffffffff166323b872dd3330846040518463ffffffff1660e01b815260040161020f93929190610985565b6020604051808303816000875af115801561022e573d6000803e3d6000fd5b505050506040513d601f19601f8201168201806040525081019061025291906109f4565b61025b57600080fd5b60005b8351811015610335578473ffffffffffffffffffffffffffffffffffffffff1663a9059cbb85838151811061029657610295610938565b5b60200260200101518584815181106102b1576102b0610938565b5b60200260200101516040518363ffffffff1660e01b81526004016102d6929190610acc565b6020604051808303816000875af11580156102f5573d6000803e3d6000fd5b505050506040513d601f19601f8201168201806040525081019061031991906109f4565b61032257600080fd5b808061032d90610a50565b91505061025e565b5050505050565b60005b82518110156103d65782818151811061035b5761035a610938565b5b602002602001015173ffffffffffffffffffffffffffffffffffffffff166108fc83838151811061038f5761038e610938565b5b60200260200101519081150290604051600060405180830381858888f193505050501580156103c2573d6000803e3d6000fd5b5080806103ce90610a50565b91505061033f565b506000479050600081111561042d573373ffffffffffffffffffffffffffffffffffffffff166108fc829081150290604051600060405180830381858888f1935050505015801561042b573d6000803e3d6000fd5b505b505050565b6000604051905090565b600080fd5b600080fd5b600073ffffffffffffffffffffffffffffffffffffffff82169050919050565b600061047182610446565b9050919050565b600061048382610466565b9050919050565b61049381610478565b811461049e57600080fd5b50565b6000813590506104b08161048a565b92915050565b600080fd5b6000601f19601f8301169050919050565b7f4e487b7100000000000000000000000000000000000000000000000000000000600052604160045260246000fd5b610504826104bb565b810181811067ffffffffffffffff82111715610523576105226104cc565b5b80604052505050565b6000610536610432565b905061054282826104fb565b919050565b600067ffffffffffffffff821115610562576105616104cc565b5b602082029050602081019050919050565b600080fd5b61058181610466565b811461058c57600080fd5b50565b60008135905061059e81610578565b92915050565b60006105b76105b284610547565b61052c565b905080838252602082019050602084028301858111156105da576105d9610573565b5b835b8181101561060357806105ef888261058f565b8452602084019350506020810190506105dc565b5050509392505050565b600082601f830112610622576106216104b6565b5b81356106328482602086016105a4565b91505092915050565b600067ffffffffffffffff821115610656576106556104cc565b5b602082029050602081019050919050565b6000819050919050565b61067a81610667565b811461068557600080fd5b50565b60008135905061069781610671565b92915050565b60006106b06106ab8461063b565b61052c565b905080838252602082019050602084028301858111156106d3576106d2610573565b5b835b818110156106fc57806106e88882610688565b8452602084019350506020810190506106d5565b5050509392505050565b600082601f83011261071b5761071a6104b6565b5b813561072b84826020860161069d565b91505092915050565b60008060006060848603121561074d5761074c61043c565b5b600061075b868287016104a1565b935050602084013567ffffffffffffffff81111561077c5761077b610441565b5b6107888682870161060d565b925050604084013567ffffffffffffffff8111156107a9576107a8610441565b5b6107b586828701610706565b9150509250925092565b600067ffffffffffffffff8211156107da576107d96104cc565b5b602082029050602081019050919050565b60006107f682610446565b9050919050565b610806816107eb565b811461081157600080fd5b50565b600081359050610823816107fd565b92915050565b600061083c610837846107bf565b61052c565b9050808382526020820190506020840283018581111561085f5761085e610573565b5b835b8181101561088857806108748882610814565b845260208401935050602081019050610861565b5050509392505050565b600082601f8301126108a7576108a66104b6565b5b81356108b7848260208601610829565b91505092915050565b600080604083850312156108d7576108d661043c565b5b600083013567ffffffffffffffff8111156108f5576108f4610441565b5b61090185828601610892565b925050602083013567ffffffffffffffff81111561092257610921610441565b5b61092e85828601610706565b9150509250929050565b7f4e487b7100000000000000000000000000000000000000000000000000000000600052603260045260246000fd5b61097081610466565b82525050565b61097f81610667565b82525050565b600060608201905061099a6000830186610967565b6109a76020830185610967565b6109b46040830184610976565b949350505050565b60008115159050919050565b6109d1816109bc565b81146109dc57600080fd5b50565b6000815190506109ee816109c8565b92915050565b600060208284031215610a0a57610a0961043c565b5b6000610a18848285016109df565b91505092915050565b7f4e487b7100000000000000000000000000000000000000000000000000000000600052601160045260246000fd5b6000610a5b82610667565b91507fffffffffffffffffffffffffffffffffffffffffffffffffffffffffffffffff8203610a8d57610a8c610a21565b5b600182019050919050565b6000610aa382610667565b9150610aae83610667565b9250828201905080821115610ac657610ac5610a21565b5b92915050565b6000604082019050610ae16000830185610967565b610aee6020830184610976565b939250505056fea2646970667358221220210a4b7d23c981e0b12cb4fd1f2b901c191330bfce804f23d225a8138cc72a8b64736f6c63430008140033",
  "linkReferences": {},
  "deployedLinkReferences": {}
}