{
  "_format": "hh-sol-artifact-1",
  "contractName": "MessageReceiver",
  "sourceName": "contracts/CrossReceiver.sol",
  "abi": [
    {
      "inputs": [
        {
          "internalType": "address",
          "name": "_gateway",
          "type": "address"
        },
        {
          "internalType": "address",
          "name": "_gasReceiver",
          "type": "address"
        }
      ],
      "stateMutability": "nonpayable",
      "type": "constructor"
    },
    {
      "inputs": [],
      "name": "InvalidAddress",
      "type": "error"
    },
    {
      "inputs": [],
      "name": "NotApprovedByGateway",
      "type": "error"
    },
    {
      "anonymous": false,
      "inputs": [],
      "name": "Executed",
      "type": "event"
    },
    {
      "inputs": [
        {
          "internalType": "bytes32",
          "name": "commandId",
          "type": "bytes32"
        },
        {
          "internalType": "string",
          "name": "sourceChain",
          "type": "string"
        },
        {
          "internalType": "string",
          "name": "sourceAddress",
          "type": "string"
        },
        {
          "internalType": "bytes",
          "name": "payload",
          "type": "bytes"
        }
      ],
      "name": "execute",
      "outputs": [],
      "stateMutability": "nonpayable",
      "type": "function"
    },
    {
      "inputs": [
        {
          "internalType": "bytes32",
          "name": "commandId",
          "type": "bytes32"
        },
        {
          "internalType": "string",
          "name": "sourceChain",
          "type": "string"
        },
        {
          "internalType": "string",
          "name": "sourceAddress",
          "type": "string"
        },
        {
          "internalType": "bytes",
          "name": "payload",
          "type": "bytes"
        },
        {
          "internalType": "string",
          "name": "tokenSymbol",
          "type": "string"
        },
        {
          "internalType": "uint256",
          "name": "amount",
          "type": "uint256"
        }
      ],
      "name": "executeWithToken",
      "outputs": [],
      "stateMutability": "nonpayable",
      "type": "function"
    },
    {
      "inputs": [],
      "name": "gateway",
      "outputs": [
        {
          "internalType": "contract IAxelarGateway",
          "name": "",
          "type": "address"
        }
      ],
      "stateMutability": "view",
      "type": "function"
    }
  ],
  "bytecode": "0x60c06040523480156200001157600080fd5b506040516200108e3803806200108e83398181016040528101906200003791906200017a565b81600073ffffffffffffffffffffffffffffffffffffffff168173ffffffffffffffffffffffffffffffffffffffff16036200009f576040517fe6c4247b00000000000000000000000000000000000000000000000000000000815260040160405180910390fd5b8073ffffffffffffffffffffffffffffffffffffffff1660808173ffffffffffffffffffffffffffffffffffffffff1681525050508073ffffffffffffffffffffffffffffffffffffffff1660a08173ffffffffffffffffffffffffffffffffffffffff16815250505050620001c1565b600080fd5b600073ffffffffffffffffffffffffffffffffffffffff82169050919050565b6000620001428262000115565b9050919050565b620001548162000135565b81146200016057600080fd5b50565b600081519050620001748162000149565b92915050565b6000806040838503121562000194576200019362000110565b5b6000620001a48582860162000163565b9250506020620001b78582860162000163565b9150509250929050565b60805160a051610e97620001f76000396000505060008181609e0152818160de015281816101fa015261030a0152610e976000f3fe608060405234801561001057600080fd5b50600436106100415760003560e01c8063116191b6146100465780631a98b2e0146100645780634916065814610080575b600080fd5b61004e61009c565b60405161005b919061053a565b60405180910390f35b61007e60048036038101906100799190610690565b6100c0565b005b61009a600480360381019061009591906107a0565b6101dc565b005b7f000000000000000000000000000000000000000000000000000000000000000081565b600085856040516100d29291906108a8565b604051809103902090507f000000000000000000000000000000000000000000000000000000000000000073ffffffffffffffffffffffffffffffffffffffff16631876eed98c8c8c8c8c878b8b8b6040518a63ffffffff1660e01b81526004016101459998979695949392919061092e565b6020604051808303816000875af1158015610164573d6000803e3d6000fd5b505050506040513d601f19601f8201168201806040525081019061018891906109e2565b6101be576040517f500c44b400000000000000000000000000000000000000000000000000000000815260040160405180910390fd5b6101cf8a8a8a8a8a8a8a8a8a6102ec565b5050505050505050505050565b600082826040516101ee9291906108a8565b604051809103902090507f000000000000000000000000000000000000000000000000000000000000000073ffffffffffffffffffffffffffffffffffffffff16635f6970c38989898989876040518763ffffffff1660e01b815260040161025b96959493929190610a0f565b6020604051808303816000875af115801561027a573d6000803e3d6000fd5b505050506040513d601f19601f8201168201806040525081019061029e91906109e2565b6102d4576040517f500c44b400000000000000000000000000000000000000000000000000000000815260040160405180910390fd5b6102e28787878787876104b3565b5050505050505050565b60608086868101906102fe9190610ca5565b809250819350505060007f000000000000000000000000000000000000000000000000000000000000000073ffffffffffffffffffffffffffffffffffffffff1663935b13f687876040518363ffffffff1660e01b8152600401610363929190610d1d565b602060405180830381865afa158015610380573d6000803e3d6000fd5b505050506040513d601f19601f820116820180604052508101906103a49190610d56565b905060005b8351811015610478578173ffffffffffffffffffffffffffffffffffffffff1663a9059cbb8583815181106103e1576103e0610d83565b5b60200260200101518584815181106103fc576103fb610d83565b5b60200260200101516040518363ffffffff1660e01b8152600401610421929190610dc1565b6020604051808303816000875af1158015610440573d6000803e3d6000fd5b505050506040513d601f19601f8201168201806040525081019061046491906109e2565b50808061047090610e19565b9150506103a9565b507f68f46c45a243a0e9065a97649faf9a5afe1692f2679e650c2f853b9cd734cc0e60405160405180910390a1505050505050505050505050565b505050505050565b600073ffffffffffffffffffffffffffffffffffffffff82169050919050565b6000819050919050565b60006105006104fb6104f6846104bb565b6104db565b6104bb565b9050919050565b6000610512826104e5565b9050919050565b600061052482610507565b9050919050565b61053481610519565b82525050565b600060208201905061054f600083018461052b565b92915050565b6000604051905090565b600080fd5b600080fd5b6000819050919050565b61057c81610569565b811461058757600080fd5b50565b60008135905061059981610573565b92915050565b600080fd5b600080fd5b600080fd5b60008083601f8401126105c4576105c361059f565b5b8235905067ffffffffffffffff8111156105e1576105e06105a4565b5b6020830191508360018202830111156105fd576105fc6105a9565b5b9250929050565b60008083601f84011261061a5761061961059f565b5b8235905067ffffffffffffffff811115610637576106366105a4565b5b602083019150836001820283011115610653576106526105a9565b5b9250929050565b6000819050919050565b61066d8161065a565b811461067857600080fd5b50565b60008135905061068a81610664565b92915050565b60008060008060008060008060008060c08b8d0312156106b3576106b261055f565b5b60006106c18d828e0161058a565b9a505060208b013567ffffffffffffffff8111156106e2576106e1610564565b5b6106ee8d828e016105ae565b995099505060408b013567ffffffffffffffff81111561071157610710610564565b5b61071d8d828e016105ae565b975097505060608b013567ffffffffffffffff8111156107405761073f610564565b5b61074c8d828e01610604565b955095505060808b013567ffffffffffffffff81111561076f5761076e610564565b5b61077b8d828e016105ae565b935093505060a061078e8d828e0161067b565b9150509295989b9194979a5092959850565b60008060008060008060006080888a0312156107bf576107be61055f565b5b60006107cd8a828b0161058a565b975050602088013567ffffffffffffffff8111156107ee576107ed610564565b5b6107fa8a828b016105ae565b9650965050604088013567ffffffffffffffff81111561081d5761081c610564565b5b6108298a828b016105ae565b9450945050606088013567ffffffffffffffff81111561084c5761084b610564565b5b6108588a828b01610604565b925092505092959891949750929550565b600081905092915050565b82818337600083830152505050565b600061088f8385610869565b935061089c838584610874565b82840190509392505050565b60006108b5828486610883565b91508190509392505050565b6108ca81610569565b82525050565b600082825260208201905092915050565b6000601f19601f8301169050919050565b60006108fe83856108d0565b935061090b838584610874565b610914836108e1565b840190509392505050565b6109288161065a565b82525050565b600060c082019050610943600083018c6108c1565b8181036020830152610956818a8c6108f2565b9050818103604083015261096b81888a6108f2565b905061097a60608301876108c1565b818103608083015261098d8185876108f2565b905061099c60a083018461091f565b9a9950505050505050505050565b60008115159050919050565b6109bf816109aa565b81146109ca57600080fd5b50565b6000815190506109dc816109b6565b92915050565b6000602082840312156109f8576109f761055f565b5b6000610a06848285016109cd565b91505092915050565b6000608082019050610a2460008301896108c1565b8181036020830152610a378187896108f2565b90508181036040830152610a4c8185876108f2565b9050610a5b60608301846108c1565b979650505050505050565b7f4e487b7100000000000000000000000000000000000000000000000000000000600052604160045260246000fd5b610a9e826108e1565b810181811067ffffffffffffffff82111715610abd57610abc610a66565b5b80604052505050565b6000610ad0610555565b9050610adc8282610a95565b919050565b600067ffffffffffffffff821115610afc57610afb610a66565b5b602082029050602081019050919050565b6000610b18826104bb565b9050919050565b610b2881610b0d565b8114610b3357600080fd5b50565b600081359050610b4581610b1f565b92915050565b6000610b5e610b5984610ae1565b610ac6565b90508083825260208201905060208402830185811115610b8157610b806105a9565b5b835b81811015610baa5780610b968882610b36565b845260208401935050602081019050610b83565b5050509392505050565b600082601f830112610bc957610bc861059f565b5b8135610bd9848260208601610b4b565b91505092915050565b600067ffffffffffffffff821115610bfd57610bfc610a66565b5b602082029050602081019050919050565b6000610c21610c1c84610be2565b610ac6565b90508083825260208201905060208402830185811115610c4457610c436105a9565b5b835b81811015610c6d5780610c59888261067b565b845260208401935050602081019050610c46565b5050509392505050565b600082601f830112610c8c57610c8b61059f565b5b8135610c9c848260208601610c0e565b91505092915050565b60008060408385031215610cbc57610cbb61055f565b5b600083013567ffffffffffffffff811115610cda57610cd9610564565b5b610ce685828601610bb4565b925050602083013567ffffffffffffffff811115610d0757610d06610564565b5b610d1385828601610c77565b9150509250929050565b60006020820190508181036000830152610d388184866108f2565b90509392505050565b600081519050610d5081610b1f565b92915050565b600060208284031215610d6c57610d6b61055f565b5b6000610d7a84828501610d41565b91505092915050565b7f4e487b7100000000000000000000000000000000000000000000000000000000600052603260045260246000fd5b610dbb81610b0d565b82525050565b6000604082019050610dd66000830185610db2565b610de3602083018461091f565b9392505050565b7f4e487b7100000000000000000000000000000000000000000000000000000000600052601160045260246000fd5b6000610e248261065a565b91507fffffffffffffffffffffffffffffffffffffffffffffffffffffffffffffffff8203610e5657610e55610dea565b5b60018201905091905056fea2646970667358221220f1f023cc5582e353712886608267ccf1e021d4ac0e4b4cb237849f86330293f964736f6c63430008130033",
  "linkReferences": {},
  "deployedLinkReferences": {}
}